{
  "_format": "hh-sol-artifact-1",
  "contractName": "EmailService",
  "sourceName": "contracts/EmailService.sol",
  "abi": [
    {
      "anonymous": false,
      "inputs": [
        {
          "indexed": false,
          "internalType": "address",
          "name": "_spamAddress",
          "type": "address"
        }
      ],
      "name": "RemovedfromSpam",
      "type": "event"
    },
    {
      "anonymous": false,
      "inputs": [
        {
          "indexed": false,
          "internalType": "address",
          "name": "sender",
          "type": "address"
        },
        {
          "indexed": false,
          "internalType": "address",
          "name": "reciever",
          "type": "address"
        },
        {
          "indexed": false,
          "internalType": "string",
          "name": "subject",
          "type": "string"
        },
        {
          "indexed": false,
          "internalType": "string",
          "name": "body",
          "type": "string"
        },
        {
          "indexed": false,
          "internalType": "uint256",
          "name": "timestamp",
          "type": "uint256"
        },
        {
          "indexed": false,
          "internalType": "string",
          "name": "ipfsHash",
          "type": "string"
        },
        {
          "indexed": false,
          "internalType": "string",
          "name": "Filename",
          "type": "string"
        }
      ],
      "name": "Send",
      "type": "event"
    },
    {
      "anonymous": false,
      "inputs": [
        {
          "indexed": false,
          "internalType": "address",
          "name": "_spamAddress",
          "type": "address"
        }
      ],
      "name": "report",
      "type": "event"
    },
    {
      "inputs": [],
      "name": "currentBalance",
      "outputs": [
        {
          "internalType": "uint256",
          "name": "",
          "type": "uint256"
        }
      ],
      "stateMutability": "view",
      "type": "function"
    },
    {
      "inputs": [],
      "name": "getInboxEmails",
      "outputs": [
        {
          "components": [
            {
              "internalType": "address",
              "name": "sender",
              "type": "address"
            },
            {
              "internalType": "address",
              "name": "receiver",
              "type": "address"
            },
            {
              "internalType": "string",
              "name": "subject",
              "type": "string"
            },
            {
              "internalType": "string",
              "name": "body",
              "type": "string"
            },
            {
              "internalType": "uint256",
              "name": "timestamp",
              "type": "uint256"
            },
            {
              "internalType": "string",
              "name": "ipfsHash",
              "type": "string"
            },
            {
              "internalType": "string",
              "name": "Filename",
              "type": "string"
            }
          ],
          "internalType": "struct EmailService.Email[]",
          "name": "",
          "type": "tuple[]"
        }
      ],
      "stateMutability": "view",
      "type": "function"
    },
    {
      "inputs": [],
      "name": "getSentEmails",
      "outputs": [
        {
          "components": [
            {
              "internalType": "address",
              "name": "sender",
              "type": "address"
            },
            {
              "internalType": "address",
              "name": "receiver",
              "type": "address"
            },
            {
              "internalType": "string",
              "name": "subject",
              "type": "string"
            },
            {
              "internalType": "string",
              "name": "body",
              "type": "string"
            },
            {
              "internalType": "uint256",
              "name": "timestamp",
              "type": "uint256"
            },
            {
              "internalType": "string",
              "name": "ipfsHash",
              "type": "string"
            },
            {
              "internalType": "string",
              "name": "Filename",
              "type": "string"
            }
          ],
          "internalType": "struct EmailService.Email[]",
          "name": "",
          "type": "tuple[]"
        }
      ],
      "stateMutability": "view",
      "type": "function"
    },
    {
      "inputs": [],
      "name": "get_Spam_list",
      "outputs": [
        {
          "internalType": "address[]",
          "name": "",
          "type": "address[]"
        }
      ],
      "stateMutability": "view",
      "type": "function"
    },
    {
      "inputs": [
        {
          "internalType": "address",
          "name": "",
          "type": "address"
        },
        {
          "internalType": "uint256",
          "name": "",
          "type": "uint256"
        }
      ],
      "name": "inbox",
      "outputs": [
        {
          "internalType": "address",
          "name": "sender",
          "type": "address"
        },
        {
          "internalType": "address",
          "name": "receiver",
          "type": "address"
        },
        {
          "internalType": "string",
          "name": "subject",
          "type": "string"
        },
        {
          "internalType": "string",
          "name": "body",
          "type": "string"
        },
        {
          "internalType": "uint256",
          "name": "timestamp",
          "type": "uint256"
        },
        {
          "internalType": "string",
          "name": "ipfsHash",
          "type": "string"
        },
        {
          "internalType": "string",
          "name": "Filename",
          "type": "string"
        }
      ],
      "stateMutability": "view",
      "type": "function"
    },
    {
      "inputs": [
        {
          "internalType": "address",
          "name": "_spamAddress",
          "type": "address"
        }
      ],
      "name": "removeFromSpam",
      "outputs": [],
      "stateMutability": "nonpayable",
      "type": "function"
    },
    {
      "inputs": [
        {
          "internalType": "address",
          "name": "_spamAddress",
          "type": "address"
        }
      ],
      "name": "reportSpam",
      "outputs": [],
      "stateMutability": "nonpayable",
      "type": "function"
    },
    {
      "inputs": [
        {
          "internalType": "address",
          "name": "_reciever",
          "type": "address"
        },
        {
          "internalType": "string",
          "name": "subject",
          "type": "string"
        },
        {
          "internalType": "string",
          "name": "body",
          "type": "string"
        },
        {
          "internalType": "uint256",
          "name": "timestamp",
          "type": "uint256"
        },
        {
          "internalType": "string",
          "name": "ipfsHash",
          "type": "string"
        },
        {
          "internalType": "string",
          "name": "Filename",
          "type": "string"
        }
      ],
      "name": "sendEmail",
      "outputs": [],
      "stateMutability": "nonpayable",
      "type": "function"
    },
    {
      "inputs": [
        {
          "internalType": "address",
          "name": "",
          "type": "address"
        },
        {
          "internalType": "uint256",
          "name": "",
          "type": "uint256"
        }
      ],
      "name": "sent",
      "outputs": [
        {
          "internalType": "address",
          "name": "sender",
          "type": "address"
        },
        {
          "internalType": "address",
          "name": "receiver",
          "type": "address"
        },
        {
          "internalType": "string",
          "name": "subject",
          "type": "string"
        },
        {
          "internalType": "string",
          "name": "body",
          "type": "string"
        },
        {
          "internalType": "uint256",
          "name": "timestamp",
          "type": "uint256"
        },
        {
          "internalType": "string",
          "name": "ipfsHash",
          "type": "string"
        },
        {
          "internalType": "string",
          "name": "Filename",
          "type": "string"
        }
      ],
      "stateMutability": "view",
      "type": "function"
    },
    {
      "inputs": [
        {
          "internalType": "address",
          "name": "",
          "type": "address"
        },
        {
          "internalType": "uint256",
          "name": "",
          "type": "uint256"
        }
      ],
      "name": "spam_list",
      "outputs": [
        {
          "internalType": "address",
          "name": "",
          "type": "address"
        }
      ],
      "stateMutability": "view",
      "type": "function"
    }
  ],
  "bytecode": "0x608060405234801561001057600080fd5b506123b0806100206000396000f3fe608060405234801561001057600080fd5b506004361061009e5760003560e01c80637f106eba116100665780637f106eba14610167578063afb35afc14610183578063b6a570e11461019f578063ce845d1d146101cf578063fcfd6b0a146101ed5761009e565b806329ea4301146100a35780633bcb2e66146100c15780634bbb04f1146100f75780634d622e7a146101155780637e2908b01461014b575b600080fd5b6100ab61020b565b6040516100b89190611f10565b60405180910390f35b6100db60048036038101906100d69190611b68565b6105a5565b6040516100ee9796959493929190611e63565b60405180910390f35b6100ff610864565b60405161010c9190611eee565b60405180910390f35b61012f600480360381019061012a9190611b68565b61092f565b6040516101429796959493929190611e63565b60405180910390f35b61016560048036038101906101609190611a56565b610bee565b005b610181600480360381019061017c9190611a7f565b610f82565b005b61019d60048036038101906101989190611a56565b611440565b005b6101b960048036038101906101b49190611b68565b61151a565b6040516101c69190611e48565b60405180910390f35b6101d7611568565b6040516101e49190611f72565b60405180910390f35b6101f5611587565b6040516102029190611f10565b60405180910390f35b6060600260003373ffffffffffffffffffffffffffffffffffffffff1673ffffffffffffffffffffffffffffffffffffffff168152602001908152602001600020805480602002602001604051908101604052809291908181526020016000905b8282101561059c57838290600052602060002090600702016040518060e00160405290816000820160009054906101000a900473ffffffffffffffffffffffffffffffffffffffff1673ffffffffffffffffffffffffffffffffffffffff1673ffffffffffffffffffffffffffffffffffffffff1681526020016001820160009054906101000a900473ffffffffffffffffffffffffffffffffffffffff1673ffffffffffffffffffffffffffffffffffffffff1673ffffffffffffffffffffffffffffffffffffffff16815260200160028201805461034b9061218a565b80601f01602080910402602001604051908101604052809291908181526020018280546103779061218a565b80156103c45780601f10610399576101008083540402835291602001916103c4565b820191906000526020600020905b8154815290600101906020018083116103a757829003601f168201915b505050505081526020016003820180546103dd9061218a565b80601f01602080910402602001604051908101604052809291908181526020018280546104099061218a565b80156104565780601f1061042b57610100808354040283529160200191610456565b820191906000526020600020905b81548152906001019060200180831161043957829003601f168201915b50505050508152602001600482015481526020016005820180546104799061218a565b80601f01602080910402602001604051908101604052809291908181526020018280546104a59061218a565b80156104f25780601f106104c7576101008083540402835291602001916104f2565b820191906000526020600020905b8154815290600101906020018083116104d557829003601f168201915b5050505050815260200160068201805461050b9061218a565b80601f01602080910402602001604051908101604052809291908181526020018280546105379061218a565b80156105845780601f1061055957610100808354040283529160200191610584565b820191906000526020600020905b81548152906001019060200180831161056757829003601f168201915b5050505050815250508152602001906001019061026c565b50505050905090565b600260205281600052604060002081815481106105c157600080fd5b9060005260206000209060070201600091509150508060000160009054906101000a900473ffffffffffffffffffffffffffffffffffffffff16908060010160009054906101000a900473ffffffffffffffffffffffffffffffffffffffff16908060020180546106319061218a565b80601f016020809104026020016040519081016040528092919081815260200182805461065d9061218a565b80156106aa5780601f1061067f576101008083540402835291602001916106aa565b820191906000526020600020905b81548152906001019060200180831161068d57829003601f168201915b5050505050908060030180546106bf9061218a565b80601f01602080910402602001604051908101604052809291908181526020018280546106eb9061218a565b80156107385780601f1061070d57610100808354040283529160200191610738565b820191906000526020600020905b81548152906001019060200180831161071b57829003601f168201915b5050505050908060040154908060050180546107539061218a565b80601f016020809104026020016040519081016040528092919081815260200182805461077f9061218a565b80156107cc5780601f106107a1576101008083540402835291602001916107cc565b820191906000526020600020905b8154815290600101906020018083116107af57829003601f168201915b5050505050908060060180546107e19061218a565b80601f016020809104026020016040519081016040528092919081815260200182805461080d9061218a565b801561085a5780601f1061082f5761010080835404028352916020019161085a565b820191906000526020600020905b81548152906001019060200180831161083d57829003601f168201915b5050505050905087565b6060600360003373ffffffffffffffffffffffffffffffffffffffff1673ffffffffffffffffffffffffffffffffffffffff16815260200190815260200160002080548060200260200160405190810160405280929190818152602001828054801561092557602002820191906000526020600020905b8160009054906101000a900473ffffffffffffffffffffffffffffffffffffffff1673ffffffffffffffffffffffffffffffffffffffff16815260200190600101908083116108db575b5050505050905090565b6001602052816000526040600020818154811061094b57600080fd5b9060005260206000209060070201600091509150508060000160009054906101000a900473ffffffffffffffffffffffffffffffffffffffff16908060010160009054906101000a900473ffffffffffffffffffffffffffffffffffffffff16908060020180546109bb9061218a565b80601f01602080910402602001604051908101604052809291908181526020018280546109e79061218a565b8015610a345780601f10610a0957610100808354040283529160200191610a34565b820191906000526020600020905b815481529060010190602001808311610a1757829003601f168201915b505050505090806003018054610a499061218a565b80601f0160208091040260200160405190810160405280929190818152602001828054610a759061218a565b8015610ac25780601f10610a9757610100808354040283529160200191610ac2565b820191906000526020600020905b815481529060010190602001808311610aa557829003601f168201915b505050505090806004015490806005018054610add9061218a565b80601f0160208091040260200160405190810160405280929190818152602001828054610b099061218a565b8015610b565780601f10610b2b57610100808354040283529160200191610b56565b820191906000526020600020905b815481529060010190602001808311610b3957829003601f168201915b505050505090806006018054610b6b9061218a565b80601f0160208091040260200160405190810160405280929190818152602001828054610b979061218a565b8015610be45780601f10610bb957610100808354040283529160200191610be4565b820191906000526020600020905b815481529060010190602001808311610bc757829003601f168201915b5050505050905087565b60005b6001600360003373ffffffffffffffffffffffffffffffffffffffff1673ffffffffffffffffffffffffffffffffffffffff16815260200190815260200160002080549050610c4091906120d8565b811015610e9d578173ffffffffffffffffffffffffffffffffffffffff16600360003373ffffffffffffffffffffffffffffffffffffffff1673ffffffffffffffffffffffffffffffffffffffff1681526020019081526020016000208281548110610cd5577f4e487b7100000000000000000000000000000000000000000000000000000000600052603260045260246000fd5b9060005260206000200160009054906101000a900473ffffffffffffffffffffffffffffffffffffffff1673ffffffffffffffffffffffffffffffffffffffff161415610e8a57600360003373ffffffffffffffffffffffffffffffffffffffff1673ffffffffffffffffffffffffffffffffffffffff168152602001908152602001600020600182610d689190612082565b81548110610d9f577f4e487b7100000000000000000000000000000000000000000000000000000000600052603260045260246000fd5b9060005260206000200160009054906101000a900473ffffffffffffffffffffffffffffffffffffffff16600360003373ffffffffffffffffffffffffffffffffffffffff1673ffffffffffffffffffffffffffffffffffffffff1681526020019081526020016000208281548110610e41577f4e487b7100000000000000000000000000000000000000000000000000000000600052603260045260246000fd5b9060005260206000200160006101000a81548173ffffffffffffffffffffffffffffffffffffffff021916908373ffffffffffffffffffffffffffffffffffffffff1602179055505b8080610e95906121ed565b915050610bf1565b50600360003373ffffffffffffffffffffffffffffffffffffffff1673ffffffffffffffffffffffffffffffffffffffff168152602001908152602001600020805480610f13577f4e487b7100000000000000000000000000000000000000000000000000000000600052603160045260246000fd5b6001900381819060005260206000200160006101000a81549073ffffffffffffffffffffffffffffffffffffffff021916905590557f6f601720e689b843db1700843d66b95a30c555859b3e2f53f8b96493b89192e581604051610f779190611e48565b60405180910390a150565b60003373ffffffffffffffffffffffffffffffffffffffff163111610fdc576040517f08c379a0000000000000000000000000000000000000000000000000000000008152600401610fd390611f32565b60405180910390fd5b8573ffffffffffffffffffffffffffffffffffffffff163373ffffffffffffffffffffffffffffffffffffffff16141561104b576040517f08c379a000000000000000000000000000000000000000000000000000000000815260040161104290611f52565b60405180910390fd5b600160008773ffffffffffffffffffffffffffffffffffffffff1673ffffffffffffffffffffffffffffffffffffffff1681526020019081526020016000206040518060e001604052803373ffffffffffffffffffffffffffffffffffffffff1681526020018873ffffffffffffffffffffffffffffffffffffffff16815260200187815260200186815260200185815260200184815260200183815250908060018154018082558091505060019003906000526020600020906007020160009091909190915060008201518160000160006101000a81548173ffffffffffffffffffffffffffffffffffffffff021916908373ffffffffffffffffffffffffffffffffffffffff16021790555060208201518160010160006101000a81548173ffffffffffffffffffffffffffffffffffffffff021916908373ffffffffffffffffffffffffffffffffffffffff16021790555060408201518160020190805190602001906111bc929190611921565b5060608201518160030190805190602001906111d9929190611921565b506080820151816004015560a0820151816005019080519060200190611200929190611921565b5060c082015181600601908051906020019061121d929190611921565b505050600260003373ffffffffffffffffffffffffffffffffffffffff1673ffffffffffffffffffffffffffffffffffffffff1681526020019081526020016000206040518060e001604052803373ffffffffffffffffffffffffffffffffffffffff1681526020018873ffffffffffffffffffffffffffffffffffffffff16815260200187815260200186815260200185815260200184815260200183815250908060018154018082558091505060019003906000526020600020906007020160009091909190915060008201518160000160006101000a81548173ffffffffffffffffffffffffffffffffffffffff021916908373ffffffffffffffffffffffffffffffffffffffff16021790555060208201518160010160006101000a81548173ffffffffffffffffffffffffffffffffffffffff021916908373ffffffffffffffffffffffffffffffffffffffff1602179055506040820151816002019080519060200190611391929190611921565b5060608201518160030190805190602001906113ae929190611921565b506080820151816004015560a08201518160050190805190602001906113d5929190611921565b5060c08201518160060190805190602001906113f2929190611921565b5050507fa6350c14583e2f1226e944596e0059ff862b97ee0ad1582f6fb81b582070719b338787878787876040516114309796959493929190611e63565b60405180910390a1505050505050565b600360003373ffffffffffffffffffffffffffffffffffffffff1673ffffffffffffffffffffffffffffffffffffffff168152602001908152602001600020819080600181540180825580915050600190039060005260206000200160009091909190916101000a81548173ffffffffffffffffffffffffffffffffffffffff021916908373ffffffffffffffffffffffffffffffffffffffff1602179055507fe053ea31271249fd8c11cf7f87e66ff15a4d9e8c2030afc3c37b9b80ee9190558160405161150f9190611e48565b60405180910390a150565b6003602052816000526040600020818154811061153657600080fd5b906000526020600020016000915091509054906101000a900473ffffffffffffffffffffffffffffffffffffffff1681565b60003373ffffffffffffffffffffffffffffffffffffffff1631905090565b6060600160003373ffffffffffffffffffffffffffffffffffffffff1673ffffffffffffffffffffffffffffffffffffffff168152602001908152602001600020805480602002602001604051908101604052809291908181526020016000905b8282101561191857838290600052602060002090600702016040518060e00160405290816000820160009054906101000a900473ffffffffffffffffffffffffffffffffffffffff1673ffffffffffffffffffffffffffffffffffffffff1673ffffffffffffffffffffffffffffffffffffffff1681526020016001820160009054906101000a900473ffffffffffffffffffffffffffffffffffffffff1673ffffffffffffffffffffffffffffffffffffffff1673ffffffffffffffffffffffffffffffffffffffff1681526020016002820180546116c79061218a565b80601f01602080910402602001604051908101604052809291908181526020018280546116f39061218a565b80156117405780601f1061171557610100808354040283529160200191611740565b820191906000526020600020905b81548152906001019060200180831161172357829003601f168201915b505050505081526020016003820180546117599061218a565b80601f01602080910402602001604051908101604052809291908181526020018280546117859061218a565b80156117d25780601f106117a7576101008083540402835291602001916117d2565b820191906000526020600020905b8154815290600101906020018083116117b557829003601f168201915b50505050508152602001600482015481526020016005820180546117f59061218a565b80601f01602080910402602001604051908101604052809291908181526020018280546118219061218a565b801561186e5780601f106118435761010080835404028352916020019161186e565b820191906000526020600020905b81548152906001019060200180831161185157829003601f168201915b505050505081526020016006820180546118879061218a565b80601f01602080910402602001604051908101604052809291908181526020018280546118b39061218a565b80156119005780601f106118d557610100808354040283529160200191611900565b820191906000526020600020905b8154815290600101906020018083116118e357829003601f168201915b505050505081525050815260200190600101906115e8565b50505050905090565b82805461192d9061218a565b90600052602060002090601f01602090048101928261194f5760008555611996565b82601f1061196857805160ff1916838001178555611996565b82800160010185558215611996579182015b8281111561199557825182559160200191906001019061197a565b5b5090506119a391906119a7565b5090565b5b808211156119c05760008160009055506001016119a8565b5090565b60006119d76119d284611fb2565b611f8d565b9050828152602081018484840111156119ef57600080fd5b6119fa848285612148565b509392505050565b600081359050611a118161234c565b92915050565b600082601f830112611a2857600080fd5b8135611a388482602086016119c4565b91505092915050565b600081359050611a5081612363565b92915050565b600060208284031215611a6857600080fd5b6000611a7684828501611a02565b91505092915050565b60008060008060008060c08789031215611a9857600080fd5b6000611aa689828a01611a02565b965050602087013567ffffffffffffffff811115611ac357600080fd5b611acf89828a01611a17565b955050604087013567ffffffffffffffff811115611aec57600080fd5b611af889828a01611a17565b9450506060611b0989828a01611a41565b935050608087013567ffffffffffffffff811115611b2657600080fd5b611b3289828a01611a17565b92505060a087013567ffffffffffffffff811115611b4f57600080fd5b611b5b89828a01611a17565b9150509295509295509295565b60008060408385031215611b7b57600080fd5b6000611b8985828601611a02565b9250506020611b9a85828601611a41565b9150509250929050565b6000611bb08383611bd0565b60208301905092915050565b6000611bc88383611d79565b905092915050565b611bd98161210c565b82525050565b611be88161210c565b82525050565b6000611bf982612003565b611c03818561203e565b9350611c0e83611fe3565b8060005b83811015611c3f578151611c268882611ba4565b9750611c3183612024565b925050600181019050611c12565b5085935050505092915050565b6000611c578261200e565b611c61818561204f565b935083602082028501611c7385611ff3565b8060005b85811015611caf5784840389528151611c908582611bbc565b9450611c9b83612031565b925060208a01995050600181019050611c77565b50829750879550505050505092915050565b6000611ccc82612019565b611cd68185612060565b9350611ce6818560208601612157565b611cef816122c3565b840191505092915050565b6000611d0582612019565b611d0f8185612071565b9350611d1f818560208601612157565b611d28816122c3565b840191505092915050565b6000611d40601e83612071565b9150611d4b826122d4565b602082019050919050565b6000611d63602b83612071565b9150611d6e826122fd565b604082019050919050565b600060e083016000830151611d916000860182611bd0565b506020830151611da46020860182611bd0565b5060408301518482036040860152611dbc8282611cc1565b91505060608301518482036060860152611dd68282611cc1565b9150506080830151611deb6080860182611e2a565b5060a083015184820360a0860152611e038282611cc1565b91505060c083015184820360c0860152611e1d8282611cc1565b9150508091505092915050565b611e338161213e565b82525050565b611e428161213e565b82525050565b6000602082019050611e5d6000830184611bdf565b92915050565b600060e082019050611e78600083018a611bdf565b611e856020830189611bdf565b8181036040830152611e978188611cfa565b90508181036060830152611eab8187611cfa565b9050611eba6080830186611e39565b81810360a0830152611ecc8185611cfa565b905081810360c0830152611ee08184611cfa565b905098975050505050505050565b60006020820190508181036000830152611f088184611bee565b905092915050565b60006020820190508181036000830152611f2a8184611c4c565b905092915050565b60006020820190508181036000830152611f4b81611d33565b9050919050565b60006020820190508181036000830152611f6b81611d56565b9050919050565b6000602082019050611f876000830184611e39565b92915050565b6000611f97611fa8565b9050611fa382826121bc565b919050565b6000604051905090565b600067ffffffffffffffff821115611fcd57611fcc612294565b5b611fd6826122c3565b9050602081019050919050565b6000819050602082019050919050565b6000819050602082019050919050565b600081519050919050565b600081519050919050565b600081519050919050565b6000602082019050919050565b6000602082019050919050565b600082825260208201905092915050565b600082825260208201905092915050565b600082825260208201905092915050565b600082825260208201905092915050565b600061208d8261213e565b91506120988361213e565b9250827fffffffffffffffffffffffffffffffffffffffffffffffffffffffffffffffff038211156120cd576120cc612236565b5b828201905092915050565b60006120e38261213e565b91506120ee8361213e565b92508282101561210157612100612236565b5b828203905092915050565b60006121178261211e565b9050919050565b600073ffffffffffffffffffffffffffffffffffffffff82169050919050565b6000819050919050565b82818337600083830152505050565b60005b8381101561217557808201518184015260208101905061215a565b83811115612184576000848401525b50505050565b600060028204905060018216806121a257607f821691505b602082108114156121b6576121b5612265565b5b50919050565b6121c5826122c3565b810181811067ffffffffffffffff821117156121e4576121e3612294565b5b80604052505050565b60006121f88261213e565b91507fffffffffffffffffffffffffffffffffffffffffffffffffffffffffffffffff82141561222b5761222a612236565b5b600182019050919050565b7f4e487b7100000000000000000000000000000000000000000000000000000000600052601160045260246000fd5b7f4e487b7100000000000000000000000000000000000000000000000000000000600052602260045260246000fd5b7f4e487b7100000000000000000000000000000000000000000000000000000000600052604160045260246000fd5b6000601f19601f8301169050919050565b7f596f75206d6179206e6f74206861766520656e6f7567682066756e64732e0000600082015250565b7f53656e64657220616e6420726563696576657220616464726573732063616e6e60008201527f6f742062652073616d652e000000000000000000000000000000000000000000602082015250565b6123558161210c565b811461236057600080fd5b50565b61236c8161213e565b811461237757600080fd5b5056fea2646970667358221220b2ce37a806a365003ec6147675d5ace4ee232de8307bb5fd1c2ca7c5a289afff64736f6c63430008040033",
  "linkReferences": {},
  "deployedLinkReferences": {}
}